:020000040000FA
:1000000000020400000000009002000032480000DE
:10001000364800003A4800003E48000042480000D0
:100020009002000090020000900200009002000088
:100030009002000090020000900200009002000078
:1000400090020000543D0000900200009002000069
:100050009002000090020000900200009002000058
:100060009002000090020000900200009002000048
:100070009002000090020000900200009002000038
:100080009002000090020000900200009002000028
:100090009002000090020000900200009002000018
:1000A0009002000090020000900200009002000008
:1000B00090020000900200009002000090020000F8
:1000C00090020000900200009002000090020000E8
:1000D00090020000900200009002000090020000D8
:1000E00090020000900200009002000090020000C8
:1000F00090020000900200009002000090020000B8
:1001000090020000900200009002000090020000A7
:100110009002000090020000900200009002000097
:100120009002000090020000900200009002000087
:100130009002000090020000900200009002000077
:100140009002000090020000900200009002000067
:100150009002000090020000900200009002000057
:100160009002000090020000900200009002000047
:100170009002000090020000900200009002000037
:100180009002000090020000900200009002000027
:100190009002000090020000900200009002000017
:1001A0009002000090020000900200009002000007
:1001B00090020000900200009002000090020000F7
:1001C00090020000900200009002000090020000E7
:1001D00090020000900200009002000090020000D7
:1001E00090020000900200009002000090020000C7
:1001F00090020000900200009002000090020000B7
:10020000FFFFFF00FFFFFF009002000046480000D4
:100210004A4800004E48000052480000564800007E
:100220009002000090020000900200009002000086
:100230009002000090020000900200009002000076
:1002400090020000543D0000900200009002000067
:100250009002000090020000900200009002000056
:100260009002000090020000900200009002000046
:100270009002000090020000900200009002000036
:100280009002000090020000900200009002000026
:100290009002000090020000900200009002000016
:1002A0009002000090020000900200009002000006
:1002B00090020000900200009002000090020000F6
:1002C00090020000900200009002000090020000E6
:1002D00090020000900200009002000090020000D6
:1002E00090020000900200009002000090020000C6
:1002F00090020000900200009002000090020000B6
:1003000090020000900200009002000090020000A5
:100310009002000090020000900200009002000095
:100320009002000090020000900200009002000085
:100330009002000090020000900200009002000075
:100340009002000090020000900200009002000065
:100350009002000090020000900200009002000055
:100360009002000090020000900200009002000045
:100370009002000090020000900200009002000035
:100380009002000090020000900200009002000025
:100390009002000090020000900200009002000015
:1003A0009002000090020000900200009002000005
:1003B00090020000900200009002000090020000F5
:1003C00090020000900200009002000090020000E5
:1003D00090020000900200009002000090020000D5
:1003E00090020000900200009002000090020000C5
:1003F00090020000900200009002000090020000B5
:10040000EFCD2200EE5E24000E0188000000000007
:100410000C000700607F240001002000110007008D
:10042000000020000000E000020032000000020096
:100430000000000088430200000000000040DA00D5
:100440000000FE004440A900202220000000E0003F
:100450000300320000002000A00188004440A800F2
:100460000000060091018800800078000000EB0089
:1004700015003700E280400032A0B4009101BA00BC
:10048000E280400032A0B4009102BA00E280400055
:1004900032A0B4000002EB00472BDE00F507B200EB
:1004A000602CE10004003A000059EB008301E900F0
:1004B000FDFF3E00040037006128E100010032002A
:1004C0000082EB00040007001101BA000200E00006
:1004D000E8FF3A00000006003159BA008301E90044
:1004E0000C0032002159BA008301E90008003200F3
:1004F0000400E00003003A00E280400032A0B400B3
:10050000F5FF370011D9BA008301E900FAFF3A007C
:100510008100E800E180400032A0B4000000060045
:100520000040DA000000FE00889FBE008A9FBE00E7
:10053000010578000100E0000400350008003C00DF
:100540000000E000200032000500370060001000CD
:10055000E080180002003B0001F02C001A00370078
:100560000004BE006011B8006B0920000982CF00B2
:10057000020039000882CF000441B00069425200F5
:100580000E00320008003B008281710061016400AE
:100590008904D1000884D3008B05E8000442E800F8
:1005A000F9FF3A00050037000804440089844C0034
:1005B0008B05E9000442E900FBFF3A004601070011
:1005C0000AF0A70001F0A0004F05BE004F04BE00D6
:1005D0000000060003F0A200889FBE008A9FBE00B4
:1005E0008C1F780062010700690133006450E1004C
:1005F0004F0032006420E1005200320003826C00A0
:1006000007003B000905D0000306D000820F54000C
:100610000C065D00020039000200320089017800FA
:10062000030678008582550004003D000003FD00AC
:100630008103FD008502EA008B854200840F720071
:1006400002003B0060001000E08018006011B8005C
:100650000005EB007A28E1000A0039000600780066
:10066000C75DDD00F707B200878075002D003700F9
:10067000828171000A017800610560008180D100EB
:100680000080D3008502E900F9FF3B00060440002A
:100690008784480002003B0060041400E0841C00D2
:1006A0000988A300070032008A81710082817100ED
:1006B000610164008904D1000884D3008B05E8003F
:1006C000170037000978A30013003A000B00E00080
:1006D000130034008B05E9000804440089844C00B1
:1006E0000A4474000978A3000D003A000B00E000F2
:1006F000070034008B05E9000804440089844C009D
:1007000001003A000B0020000978A300F7FF320037
:100710000001EB0002003700828171000A017800BD
:10072000ED0007000CF0A70001F0A0002101370048
:100730006420E10002003A00838F6C002101330045
:100740000801BE000200BE001A013700889FBE00EB
:100750008A9FBE008C1F7800050107000C01330042
:1007600003866C006450E100240032006420E10044
:10077000270032006150E100220032006120E100D8
:10078000210032008B854200EB07B1000134B80034
:10079000003AB8000804420089844A00013AB800CF
:1007A0000030B8008880400009014A00040033008E
:1007B0000000400081804800020149008B05E900EB
:1007C000C909DD0083017000010032001300200020
:1007D000C814DE004814DD004709DE001200B20034
:1007E000C808DE0008847000BB00070001F0A1000B
:1007F0000CF0A70001F0A000EE0037006120E1003E
:10080000F00032000801BE000200BE00F7FF370012
:100810006150E100FCFF3A00EA0037000001BE0031
:10082000EB0007000470A70003F0A1006509B10008
:10083000160032000D0035006828E1000600350082
:10084000F0FF2F00F1FF27000300E00013003B0042
:1008500001002800000005000000400081804800E1
:100860008502E900FCFF3A0008003700F88F4200DB
:1008700002003C008000EB00000005008100D10078
:100880000080D3008502E800FCFF3A000300E0008E
:1008900002003B0060001000E0801800000006002D
:1008A0000081EB00DF0037000001EB00DD003700C6
:1008B000839F68000100E00002003D00600010001E
:1008C000E08018000300E00002003D00600111001C
:1008D000E08119003C0107004F00E00002003B00EE
:1008E00060001000E080180000000600889FBE0035
:1008F0008A9FBE008C1F78009D000700A400330073
:1009000003866C006450E1002E0032006420E10098
:10091000330032006150E1002F0032006120E1001D
:100920003100320085855500EB07B000090020003A
:1009300008042000050037000804440089844C00A6
:100940000A0031000603430087834B000001530077
:1009500081815B00F8FF33000203BE000800A000A5
:100960000804440089844C00F6FF3900C639DD00D4
:100970008301730001003200130020008904D100BC
:100980000884D3000998A300050032000800A700DE
:100990000300A0008904D1000884D3008B05E8007F
:1009A0008904D1000884D3000001EB000281D20049
:1009B0004900070001F0A1000CF0A70001F0A00021
:1009C0007C0037006420E1007E0032000801BE0098
:1009D0000200BE00F7FF37006120E100790032001D
:1009E0006000B800F3FF37000000200001F8270086
:1009F000F0FF37001400200003013700889FBE007D
:100A00008A9FBE008C1F78000004BE0070000700A3
:100A10000478A30026003A006120E100250032009E
:100A200009F8A30025003A006420E100210032000B
:100A3000F507B1000508A3000200320000004000E5
:100A4000818048006044B8000310200002002000AC
:100A500000004000818048000805440089854C0062
:100A60000A0541008B8549000A0550008B85580016
:100A7000030033000A00BE00020474008384740083
:100A80008301D1000281D300830F7100F0FF3A008F
:100A90008904D1000884D3006001490082017800F4
:100AA000C1ADDE00FB07B0000B00070041003700BE
:100AB0000960A0000800BE003E00370012022000BE
:100AC000E2A68800F0FF2F00F1FF27003900370071
:100AD000F4FF2F00CC00370081002000618055001A
:100AE0000B003D000B00200061FE2F000100E10023
:100AF0001D00340082817100610164008904D1000D
:100B00000884D3000000E800FAFF3A0071002000DA
:100B10006100640003007000020060000900320000
:100B200061044400E0844C000988A50005003200FF
:100B30008B05E8006808E10002003A008904D10052
:100B40000884D300F20F20000258E10005003D00A8
:100B5000C75DDD00F907B2008980750008007800E4
:100B6000000006000BF827008B007800000005004D
:100B70000004BE00160007000003BE000405BE000E
:100B80000200BE0012000700844F7500000006003E
:100B90000200BE006450E100050036006420E10060
:100BA000020036000968A30001003A000800BE00F8
:100BB0000160A0004F0678004F05BE004F04BE0044
:100BC00000000600F0FF2F00F1FF2700F9FF3700BB
:100BD000C70ADE00F107B200F50FB20008003200CC
:100BE000E1CF4200020032000170A00024000500A5
:100BF000810F700001003200040805004400050068
:100C0000810F700002003A00140005008502E9001F
:100C10000000400081C04800FCFF3B000170A000C4
:100C200024000500889FBE008A9FBE008C9FBE00E6
:100C3000820578000004BE00E5FF07000800BE0042
:100C40006420E1000700390002003A00F1FF2700AC
:100C5000F0FF2F000160A00012022000E2A6880031
:100C6000550037006120E10003003A000B00A700A7
:100C700001F823005000370001F0A100020021001C
:100C8000936424005BFF07000800BE0004003500E9
:100C9000B2FD2000930C2400760007000004BE0083
:100CA0000005EB000B00A6004F0DDE0001F0A100D7
:100CB0000004BE0032982F0023EA2300A3FE0700A1
:100CC0000001EB0003F023000B00A70003F8230052
:100CD00041FE0700D1FE07000000A7000A00A200A5
:100CE00011FE07000B00E0000300320002002000AC
:100CF00003F0230037FE070001F0A2000006BE004B
:100D0000020020009304240090FE07000801BE00AA
:100D100031FE0700809FBE000C00BE0022A22A0008
:100D2000D3A7230089FE07004F01BE002AFE07005B
:100D30000004BE0001F0A10002002000039823007F
:100D40002CFF07000800BE00190035000001BE009E
:100D50007EFE07000006BE00B2C52900E362230044
:100D60007AFE070022222B00F3942B001AFE0700C4
:100D70000C01BE0075FE0700E273280083C023004B
:100D800015FE07000C01BE0070FE070042AA2A00F3
:100D9000A3E22B0010FE07000C01BE006BFE070053
:100DA0000801BE0069FE07000801BE000AFE070038
:100DB0000A00A70001F0A2004F06BE004F05BE00CA
:100DC0004F04BE00000006006022B80006022000AA
:100DD0000000D0008180D2000482D2008582D2003F
:100DE0000000A0000202520083825A00030031007A
:100DF0000202420083824A000000A1000603E900CB
:100E0000F3FF3A0000000600889FBE008A9FBE00E4
:100E1000841F780056FF07004F0078001100330050
:100E2000F0FF2F00838F6C0006003B000405650077
:100E30000A00A7000800370009F0A60010002000F3
:100E400008003700820F5400838F5C0003003900D4
:100E50001000200001003E000000200009F0A70063
:100E60000000EA004F05BE004F04BE000000E00095
:100E7000000006000400200000003700889FBE002C
:100E80008A9FBE008C1F78004F26DD0038FF0700C8
:100E90003FFF33006120E100430032006250E10077
:100EA00041003E003E0039006420E1003C00320079
:100EB000058255000F003B000402E80038003A00AC
:100EC000800F5300818F5B00350034000800BE00A6
:100ED00003F0A10001F0A60003F0A0000CF0A700B1
:100EE000BDFD070033FF37000603430087834B0037
:100EF0000C4646000005530081855B00020033006C
:100F00000A03BE000C00A0000402E900F6FF3B004B
:100F1000850578000602430087824B0004003A00F2
:100F20006000B80009F0A70001F0A00021FF370021
:100F30000002520081825A000704E00004003300DE
:100F40000603430087834B008B05E900FAFF370057
:100F5000090578000604BE000203BE006011B80057
:100F6000DDFE0700E00F5200E08F5A000700350059
:100F700002003C000C08A300040032000601BE0081
:100F800003F0A0000CF0A70093FD07000A8568009D
:100F900001F0A1000AF0A70001F0A00005FF370052
:100FA0000800BE0003FF3700100220000CF0A6006E
:100FB000E0A6880003FF370000F8000020F80000DA
:100FC00060F80000A0F80000E0F8000020F9000040
:100FD00060F90000A0F90000E0F9000020FA00002C
:100FE00060FA0000A0FA0000E0FA000020FB000018
:100FF00060FB0000A0FB0000E0FB000020FC000004
:1010000060FC0000A0FC0000E0FC000020FD0000EF
:1010100060FD0000A0FD0000E0FD000020FE0000DB
:1010200060FE0000A0FE0000E0FE000020FF0000C7
:1010300060FF0000A0FF0000E0FF0000E0F70000FC
:10104000E0EF0000E0E70000E0DF0000E0D7000094
:10105000E0CF0000E0C70000E0BF0000E0B7000004
:10106000E0AF0000E0A70000E09F0000E097000074
:10107000E08F0000E0870000E07F0000E0770000E4
:10108000E06F0000E0670000E05F0000E057000054
:10109000E04F0000E0470000E03F0000E0370000C4
:1010A000E02F0000E0270000E01F0000E017000034
:1010B000E00F0000E0070000E1070000E207000089
:1010C000E3070000E4070000E5070000E607000072
:1010D000E7070000E8070000E9070000EA07000052
:1010E000EB070000EC070000ED070000EE07000032
:1010F000EF070000F0070000F1070000F207000012
:10110000F3070000F4070000F5070000F6070000F1
:10111000F7070000F8070000F9070000FA070000D1
:10112000FB070000FC070000FD070000FE070000B1
:10113000FF070000DF0700009F0700005F070000B7
:101140001F070000DF0600009F0600005F0600008A
:101150001F060000DF0500009F0500005F0500007E
:101160001F050000DF0400009F0400005F04000072
:101170001F040000DF0300009F0300005F03000066
:101180001F030000DF0200009F0200005F0200005A
:101190001F020000DF0100009F0100005F0100004E
:1011A0001F010000DF0000009F0000005F00000042
:1011B0001F0000001F000000FE200000D000000003
:1011C000FE100000FE00000090D00000B090000073
:1011D0000E1100000E0200001F0000001D1500008F
:1011E00016150000150E0000070400001F17000070
:1011F000150D00001E1500001D010000190700005C
:101200001F1500001F170000150F00007CA2000032
:10121000928A00007C00000084FE00008000000034
:10122000E4920000929200008C4400008292000040
:10123000926C00003028000024FE0000204E0000C8
:101240008A8A00008A72000078940000929200005E
:1012500060020000E21200000A0600006C9200002A
:10126000929200006C0C000092920000523C000030
:10127000000000000000000000000000B07000004E
:101280000000000010280000448200000028000038
:1012900028280000282800008244000028100000B0
:1012A00000400000201000000804000000C0000002
:1012B000C000000000F800002422000024F8000014
:1012C00082FE0000929200006C7C0000828200008E
:1012D0008244000082FE0000828200007CFE00004A
:1012E0009292000082820000FE12000012020000B2
:1012F000027C00008292000092740000FE10000048
:1013000010100000FE00000082FE000082000000BD
:1013100040800000827E000002FE000010280000D5
:1013200044820000FE8000008080000080FE0000FB
:101330000418000004FE0000FE0400000810000075
:10134000FE7C000082820000827C0000FE12000011
:10135000121200000C7C000082A2000042BC0000BF
:10136000FE120000325200008C4C000092920000ED
:101370009264000002020000FE020000027E0000F3
:1013800080800000807E00000E300000C030000031
:101390000EFE00004030000040FE0000C6280000A5
:1013A00010280000C606000008F000000806000033
:1013B000C2A20000928A0000865600004F4C000036
:1013C000004100004D000000464D0000004B0000B1
:1013D000485A0000008000008080000080800000EB
:1013E00080800000803000000031000030300000BC
:1013F00000320000303000000000000081C3A9006E
:1014000081A3A90080C3BF00F1CCB30001406000FC
:1014100080E3B70080C3BF00C1CFB30001406000CC
:1014200080E3B70000302000401C8800F00F20004F
:10143000501C8800D0002000101C88000060200094
:10144000201C88008480A9009480A90081E3A80062
:1014500000000600881F780000047800CF80DE00BE
:1014600031FC07000800E00003003D0002002000FE
:101470000378240058FC0700F2512800531B240075
:10148000B2FC0700E5FC0700000178000000E00066
:1014900002003A004F047800000006000000E90056
:1014A000670060000000000011002000810F510063
:1014B000F8FF36000000E0001C003200810F5000F1
:1014C00016003200E20F500012003200E30F50000D
:1014D0000E003200E40F50000A003200E50F500009
:1014E00006003200E60F500002003200000000004B
:1014F00021002000000000008100E8000000000042
:101500008100E800000000008100E8000000000009
:101510008100E800000000008100E80000000000F9
:101520008100E800810F5100DAFF36000000000062
:101530000100E800000000000000000000000000C2
:10154000000000000000000000000000000000009B
:10155000E7004000810F5100CEFF3600F3FF370057
:10156000A20020008000EB00030037000201E90028
:10157000FCFF3A0000000600000000000100E80047
:10158000000000000000000000000000000000005B
:10159000000000000000000000000000000000004B
:1015A000E8004000A01C2100808F5000EFFF3200B7
:1015B000F1FF370040002000C0A08800000120009B
:1015C000D0A088007000400060A588009C34EF0027
:1015D000B0FD200091EC2300B1FC070002002000C8
:1015E0000320240059FC07008CFC070070A588002C
:1015F000B0FD200091EC2300ABFC070002002000AE
:101600000320240051FC070084FC0700F0A488009C
:10161000B0FD200091F42300A1FC0700020020008F
:101620000320240049FC07007CFC070080A58800FB
:10163000B0FD200091F423009BFC07000200200075
:101640000320240041FC070074FC070000A588006B
:1016500040BE2C0061F9230091FC0700020020002D
:101660000320240039FC07006CFC070090A58800CB
:1016700040BE2C0061F923008BFC07000200200013
:101680000320240031FC070064FC070010A588003B
:10169000B0FD200091FC230081FC07000200200027
:1016A0000320240029FC07005CFC0700A0A588009B
:1016B000B0FD200091FC23007BFC0700020020000D
:1016C0000320240021FC070054FC070020A588000B
:1016D000203D2500B1FF230071FC0700020020001F
:1016E0000320240019FC07004CFC0700B0A588006B
:1016F000203D2500B1FF23006BFC07000200200005
:101700000320240011FC070044FC070030A58800DA
:1017100040BE2C006101240061FC07000200200093
:101720000320240009FC07003CFC0700C0A588003A
:1017300040BE2C00610124005BFC07000200200079
:101740000320240001FC070034FC070040A58800AA
:1017500000DE2E00F102240051FC070002002000F0
:1017600003202400F9FB07002CFC0700D0A588000B
:1017700000DE2E00F10224004BFC070002002000D6
:1017800003202400F1FB070024FC070050A588007B
:1017900000000600889FBE008A9FBE008C1F780054
:1017A00050002000A09688007B004000B096880082
:1017B0000006EB00883F2100893D2100040037002E
:1017C0004F0678004F05BE004F04BE000000060023
:1017D0006160B90054FB0700B2FD2000930C2400A7
:1017E000DAFB07000200200003D02300D7FB07002C
:1017F0000005BE002AFC0700020020000320240090
:10180000D2FB070005FC0700001C78000A00BE00A0
:1018100025FC07000200200003202400CBFB07006A
:10182000FEFB0700801C78000C06E8006160B90030
:101830003DFB0700B2FD2000930C2400C3FB070012
:101840000200200003D02300C0FB07000005BE00FB
:1018500013FC07000200200003202400BBFB07004C
:10186000EEFB0700001C78000A00BE000EFC07001B
:101870000200200003202400B4FB0700E7FB070060
:10188000801C78000C06E800F00F5600CCFF3200F8
:10189000CFFF3700889FBE008A9FBE008C1F780054
:1018A00070002000806E880000082000906E880084
:1018B0000006EB0048252100491D210004003700E7
:1018C0004F0678004F05BE004F04BE000000060022
:1018D0006160B90014FB0700B2FD2000930C2400E6
:1018E0009AFB07000200200003C0230097FB0700BB
:1018F0000005BE00EAFB07000200200003202400D0
:1019000092FB0700C5FB0700001C78000A00BE0020
:10191000E5FB070002002000032024008BFB0700EA
:10192000BEFB0700801C78000C06E8006160B9006F
:10193000FDFA0700B2FD2000930C240083FB070092
:101940000200200003C0230080FB07000005BE004A
:10195000D3FB070002002000032024007BFB0700CC
:10196000AEFB0700001C78000A00BE00CEFB07009B
:10197000020020000320240074FB0700A7FB0700DF
:10198000801C78000C06E80000042000800F560040
:10199000CBFF3200CEFF37006F03B000889FBE0040
:1019A0008A9FBE008C9FBE008E1F7800D0A0800052
:1019B000B0B79F008080D100D1AF9F004240A90006
:1019C000E2013C00010178000300370005017800C6
:1019D00001003700040178000281D100B2AF9F00FE
:1019E000C3A08000F3AF9F000302E900E4AF9F00B3
:1019F00025002000C5AF9F00E10F5200B400340065
:101A000017002000A7AF9F0028002000C8AF9F004C
:101A10008704780001003700830478000908A300D8
:101A2000D1003A00CC0037000006EB008CA79F00E5
:101A30000C017800CFA997000390B9000001400085
:101A40005FAA97000400E0003F003400000042005D
:101A500000004000C54721008502400095AF9F006F
:101A6000C74521000700400080AF9F00C847210004
:101A700008044100F8A79F000280410000004000D8
:101A8000C943210089044000E9A79F0007074100DE
:101A9000CC4121008C06400002004100C1432100DE
:101AA00001064000C2412100820540000005EB0014
:101AB00085017800010037009FA997003301780065
:101AC00093AF9F000A004500C44A210060037A00DA
:101AD0008FAA9700B504780085AF9F00C749210001
:101AE00060847B000692B90008C8B9000002520069
:101AF00045A2DE000890B90009B3B9000601400014
:101B00004591DE00FFA19700B3007800F3A79F0086
:101B1000EFA29700849A5000E5A79F003E0078004E
:101B2000821E5000011E4200801D4100BFAB970085
:101B3000070545005FAC97008A0F5400DEFF3C00AC
:101B400007067800010037003FAE97008FA497008A
:101B50008904E80089A79F00890F56004E003200D3
:101B60000FA19700B3FF37000000EB00F09F9F002C
:101B7000000178000100370009017800CFA9970023
:101B80000390B900000140005FAA97000400E00044
:101B90003B0034000000420000004000C54321002B
:101BA00085024000D5A79F00C741210007004000E3
:101BB000C0A79F00C843210008044100B8A79F00A8
:101BC0000280410000004000C94721008901400017
:101BD00007074100CC4521008C064000020041006F
:101BE00009064000C1452100810540000005EB00C9
:101BF00005027800010037005FA2970034017800E9
:101C0000D4A79F000A004500C54A210060837A00DE
:101C1000CFA39700B7047800C7A79F00C149210050
:101C2000608478000692B90008C8B900000252002A
:101C300045A2DE000890B90009B3B90006014000D2
:101C40004591DE00BFA29700B5007800B5A79F00C0
:101C5000849950003E007800821E5000011E420010
:101C6000801D4100BFAB9700070545005FAC9700A2
:101C70008A0F5400E0FF3C0007067800010037009F
:101C80003FAE9700FF9C97008904E800F99F9F00F2
:101C9000890F5600B8FF3A000C0178004FA8970052
:101CA00000004000C0AF9F000281D100B2AF9F0092
:101CB000AFA997008301E800A3AF9F006FAA970028
:101CC000848F510054FF3A00FFAA970001003700AB
:101CD000830278000508A3001B003A0002003700C9
:101CE0008C00780001003700E1A38000DFAB970093
:101CF00007804300C947210060837C00C84521005C
:101D000060027C0001004300E0A18800E2A28000A4
:101D100002004200E0A088004FAE97000C00460091
:101D2000C54321008680500001B07A00C6412100E1
:101D30000401510002307B008C03E900E10F5600E2
:101D40000E003400130037003FB097000000E000A1
:101D5000A3003C00E4FF3700BFA897000100E000AB
:101D600081FF3C00030037003FA997000200E0001C
:101D70002DFF3C003FA99700C8FF37004F077800B0
:101D80004F06BE004F05BE004F04BE006F03B100FA
:101D900000000600DFA997000300E80000004000F3
:101DA00089004000080140004FAA97000700420048
:101DB000000040008501400006024000078043000B
:101DC00085024000060340004FAC9700E103640029
:101DD000B1047800A9B79F007CA580009CB79F0044
:101DE00032007800FEA480000CCEB9000E85B90048
:101DF0008A045600C5CCDE00A9A79F002FB4970027
:101E00000EC6B9009FB4970000CDB9008A04460001
:101E1000C5CDDE00FAA380002FA697008A114600E8
:101E2000F9A28000099245008C1255000B935400D2
:101E30002000200090A79F004FAC970029002000B1
:101E4000890F5400CDFF32000700E0001E00320071
:101E500031067800ACB79F0080A58000B2037800FF
:101E60000EA5800000E6B9000EBDB9008A04560038
:101E7000C5CCDE00A9A79F002FB497000EC6B900FD
:101E80000785B9008A044600C5CDDE000AA480009B
:101E9000AFA497008A91440009A3800009924500ED
:101EA0002FA697008C1255000B9354003000200091
:101EB00090A79F0040002000CFAB97003800200083
:101EC000888F5300ADFF3200B1047800A9B79F009E
:101ED000EC4A210060067E009CB79F00B2037800A8
:101EE000E849210060077C000CCEB9000EBDB900A6
:101EF0008A045600C5CCDE00A9A79F00AFB49700A6
:101F00000ECEB9001FB4970007C5B9008A04460079
:101F1000C5CDDE00E847210060057C00AFA4970036
:101F20008A914400E7452100E0847B000992450046
:101F30002FA697008C1255000B9354000080E800E8
:101F400083BF9F00B1017800A3B79F00E94A210039
:101F5000E0847C0099B79F00320678008CB79F0020
:101F6000E349210060877900AFB19700099EB9006D
:101F70008FB497000ECDB9008A045600C5CCDE00A0
:101F8000A9A79F000E9EB9009FB197008FB497003C
:101F9000099DB9008A044600C5CDDE0060057C00BD
:101FA0000FBE9700AFA197000A964100E0847B0026
:101FB00009924500831255000B9354009FA397008C
:101FC0008783E80097A79F000080E8008C017800D5
:101FD0004FAC9700870F540068FF3200BAFF3700FC
:101FE00080047800C6472100C3432100C445210076
:101FF000C54121000000E90067006000ECA18000FD
:10200000ECA38800E1A08000E1A28800120020007B
:1020100021002000828F540031FF32000000E000D8
:102020002D003200820F500024003200810F50003A
:102030001E003200E30F500018003200E40F500081
:1020400012003200E50F50000C003200E60F500085
:1020500006003200F2A18000F2A38800F7A0800001
:10206000F7A28800010178004100200063B37800E6
:1020700065B278000201E8008180E80063B378006F
:1020800065B278000201E8008180E80063B378005F
:1020900065B278000201E8008180E80063B378004F
:1020A00065B278000201E8008180E80063B378003F
:1020B00065B278000201E8008180E80063B378002F
:1020C00065B278000201E8008180E8003FB6970021
:1020D000820F560004FF320063B3780065B27800C7
:1020E0000180E80063337800653278008080E80082
:1020F00063B3780065B27800E400400063B3780011
:1021000065B27800E600400063B3780065B27800FD
:10211000E800400063B3780065B27800EA00400050
:1021200063B3780065B27800EC00400063B37800D8
:1021300065B2780068014100EE0040003FB69700AC
:10214000820F5600E8FE3200E3FF370001017800FD
:1021500081804000C043210080864000C0412100B2
:1021600080804000CE4521000200E900610060004F
:10217000BD04780031057800E7A18000E8A0800068
:1021800007824400E4A3880008024500E4A2880016
:102190002500200009825300F4A388000A0254009D
:1021A000F4A288001C002000E2432100E34121004A
:1021B0005FAA97008C0F520006FE32000000E0007C
:1021C00012003200BD0478003105780092037800D7
:1021D000130478000782440004A488000802450024
:1021E00004A388000982530014A488000A02540042
:1021F00014A3880005067800024421000342210050
:10220000DFAA97008C8F5200F0FD3200BD047800E9
:1022100031057800B2037800330478008C02460060
:102220000583420007824400C04721000433780040
:102230000802450004337F000502E80084024200E2
:1022400009825300843278000A02540084327F00ED
:102250000C06E8000D00780083057800B0047800D3
:1022600031057800B20378003B0478008C02460008
:102270000583420007824400C347210004B379006C
:102280000802450004337F000502E8008402420092
:102290000982530084B279000A02540084327F001C
:1022A0000C06E800800678008B0178005FAA970092
:1022B0008C0F5200C7FD3200D4FF37006F03B0000F
:1022C000889FBE008A9FBE008C9FBE008E1F780034
:1022D000B0968000B0B79F008080D100D1AF9F0042
:1022E0004240A900E2013C000101780003003700F0
:1022F0000501780001003700040178000281D10057
:10230000B2AF9F00A3968000F3AF9F000302E900E5
:10231000E4AF9F0025002000C5AF9F00E10F5200F1
:10232000B400340017002000A7AF9F002800200051
:10233000C8AF9F008704780001003700830478004D
:102340000908A300D1003A00CC0037000006EB00DA
:102350008CA79F000C017800CFA997000390B900CB
:10236000000140005FAA97000400E0003F00340035
:102370000000420000004000853921008502400035
:1023800095AF9F00873521000700400080AF9F0078
:102390008839210008044100F8A79F00028041000D
:1023A000000040008931210089044000E9A79F0016
:1023B000070741008C2D21008C06400002004100DF
:1023C0008131210001064000822D2100820540005C
:1023D0000005EB0085017800010037009FA99700F8
:1023E0003301780093AF9F000A004500843F21002D
:1023F00060037A008FAA9700B504780085AF9F002C
:10240000873D210060847B000692B90008C8B900AE
:102410000002520045A2DE000890B90009B3B900DD
:10242000060140004591DE00FFA19700B30078004F
:10243000F3A79F00EFA29700849A5000E5A79F00A2
:102440003E007800821E5000011E4200801D4100A7
:10245000BFAB9700070545005FAC97008A0F54009B
:10246000DEFF3C0007067800010037003FAE970012
:102470008FA497008904E80089A79F00890F560060
:102480004E0032000FA19700B3FF37000000EB00B1
:10249000F09F9F00000178000100370009017800DB
:1024A000CFA997000390B900000140005FAA9700F0
:1024B0000400E0003B003400000042000000400047
:1024C0008531210085024000D5A79F00872D21007E
:1024D00007004000C0A79F00883121000804410088
:1024E000B8A79F0002804100000040008939210008
:1024F00089014000070741008C3521008C0640000F
:10250000020041000906400081352100810540009C
:102510000005EB0005027800010037005FA297007C
:1025200034017800D4A79F000A004500853F2100B0
:1025300060837A00CFA39700B7047800C7A79F00F5
:10254000813D2100608478000692B90008C8B90076
:102550000002520045A2DE000890B90009B3B9009C
:10256000060140004591DE00BFA29700B50078004B
:10257000B5A79F00849950003E007800821E50004D
:10258000011E4200801D4100BFAB970007054500BA
:102590005FAC97008A0F5400E0FF3C00070678000C
:1025A000010037003FAE9700FF9C97008904E800C8
:1025B000F99F9F00890F5600B8FF3A000C01780080
:1025C0004FA8970000004000C0AF9F000281D100DB
:1025D000B2AF9F00AFA997008301E800A3AF9F00AF
:1025E0006FAA9700848F510054FF3A00FFAA97000A
:1025F00001003700830278000508A3001B003A00A1
:10260000020037008C00780001003700C19C800078
:10261000DFAB9700078043008939210060837C008D
:102620008835210060027C0001004300C0988800CA
:10263000C29A800002004200C09688004FAE970008
:102640000C004600853121008680500001B07A00E0
:10265000862D21000401510002307B008C03E9002B
:10266000E10F56000E003400130037003FB0970012
:102670000000E000A3003C00E4FF3700BFA8970083
:102680000100E00081FF3C00030037003FA99700F4
:102690000200E0002DFF3C003FA99700C8FF370073
:1026A0004F0778004F06BE004F05BE004F04BE0026
:1026B0006F03B10000000600DFA997000300E800E7
:1026C0000000400089004000080140004FAA970028
:1026D0000700420000004000850140000602400063
:1026E0000780430085024000060340004FAC97007E
:1026F000E1036400B1047800A9B79F00DC9F80006B
:102700009CB79F0032007800DE9E80000CCEB9009E
:102710000E85B9008A045600C5CCDE00A9A79F002B
:102720002FB497000EC6B9009FB4970000CDB90032
:102730008A044600C5CDDE00DA9C80002FA69700F3
:102740008A114600D99A8000099245008C125500E2
:102750000B9354002000200090A79F004FAC9700DF
:1027600029002000890F5400CDFF32000700E0004F
:102770001E00320031067800ACB79F00E09F800059
:10278000B2037800EE9E800000E6B9000EBDB900ED
:102790008A045600C5CCDE00A9A79F002FB497007D
:1027A0000EC6B9000785B9008A044600C5CDDE0013
:1027B000EA9C8000AFA497008A914400E99A8000C7
:1027C000099245002FA697008C1255000B935400D8
:1027D0003000200090A79F0040002000CFAB970062
:1027E00038002000888F5300ADFF3200B10478001C
:1027F000A9B79F00AC3F210060067E009CB79F00F8
:10280000B2037800A83D210060077C000CCEB9001F
:102810000EBDB9008A045600C5CCDE00A9A79F00F2
:10282000AFB497000ECEB9001FB4970007C5B9002A
:102830008A044600C5CDDE00A839210060057C0071
:10284000AFA497008A914400A7352100E0847B0063
:10285000099245002FA697008C1255000B93540047
:102860000080E80083BF9F00B1017800A3B79F00FC
:10287000A93F2100E0847C0099B79F0032067800D0
:102880008CB79F00A33D210060877900AFB197000E
:10289000099EB9008FB497000ECDB9008A04560086
:1028A000C5CCDE00A9A79F000E9EB9009FB197007E
:1028B0008FB49700099DB9008A044600C5CDDE009B
:1028C00060057C000FBE9700AFA197000A964100FB
:1028D000E0847B0009924500831255000B9354005D
:1028E0009FA397008783E80097A79F000080E800D8
:1028F0008C0178004FAC9700870F540068FF3200BE
:10290000BAFF370080047800863921008331210026
:1029100084352100852D21000000E900670060005A
:10292000CC988000CC9C8800C1968000C19A880019
:102930001200200021002000828F540031FF32005D
:102940000000E0002D003200820F50002400320011
:10295000810F50001E003200E30F500018003200BB
:10296000E40F500012003200E50F50000C0032005E
:10297000E60F500006003200D2988000D29C8800FA
:10298000D7968000D79A8800010178004100200086
:1029900063B3780065B278000201E8008180E80046
:1029A00063B3780065B278000201E8008180E80036
:1029B00063B3780065B278000201E8008180E80026
:1029C00063B3780065B278000201E8008180E80016
:1029D00063B3780065B278000201E8008180E80006
:1029E00063B3780065B278000201E8008180E800F6
:1029F0003FB69700820F560004FF320063B37800A1
:102A000065B278000180E8006333780065327800B1
:102A10008080E80063B3780065B27800E40040008D
:102A200063B3780065B27800E600400063B37800D5
:102A300065B27800E800400063B3780065B27800C2
:102A4000EA00400063B3780065B27800EC00400013
:102A500063B3780065B2780068014100EE00400081
:102A60003FB69700820F5600E8FE3200E3FF3700C2
:102A70000101780081804000803121008086400083
:102A8000802D2100808040008E3521000200E90069
:102A900061006000BD04780031057800C7988000AF
:102AA000C896800007824400C49C88000802450044
:102AB000C49A88002500200009825300D49C880015
:102AC0000A025400D49A88001C002000A231210080
:102AD000A32D21005FAA97008C0F520006FE320042
:102AE0000000E00012003200BD04780031057800DB
:102AF000920378001304780007824400E49C880065
:102B000008024500E49A880009825300F49C88007A
:102B10000A025400F49A880005067800C2312100A8
:102B2000C32D2100DFAA97008C8F5200F0FD3200E8
:102B3000BD04780031057800B203780033047800D2
:102B40008C02460005834200078244008039210040
:102B5000043378000802450004337F000502E800D2
:102B60008402420009825300843278000A02540031
:102B700084327F000C06E8000D00780083057800A1
:102B8000B004780031057800B20378003B04780087
:102B90008C024600058342000782440083392100ED
:102BA00004B379000802450004337F000502E80001
:102BB000840242000982530084B279000A02540060
:102BC00084327F000C06E800800678008B017800D4
:102BD0005FAA97008C0F5200C7FD3200D4FF370068
:102BE0006F03B000889FBE008A9FBE008C9FBE000E
:102BF0008E1F7800906E8000B0B79F008080D1005B
:102C0000D1AF9F004240A900E2013C0001017800E1
:102C10000300370005017800010037000401780047
:102C20000281D100B2AF9F00836E8000F3AF9F009E
:102C30000302E900E4AF9F0025002000C5AF9F001C
:102C4000E10F5200B400340017002000A7AF9F002E
:102C500028002000C8AF9F008704780001003700DB
:102C6000830478000908A300D1003A00CC003700A3
:102C70000006EB008CA79F000C017800CFA99700FD
:102C80000390B900000140005FAA97000400E00033
:102C90003F003400000042000000400045ED2000ED
:102CA0008502400095AF9F0047DD200007004000EF
:102CB00080AF9F0048ED200008044100F8A79F0066
:102CC0000280410000004000490D210089044000BD
:102CD000E9A79F00070741004CFD20008C0640003B
:102CE00002004100410D21000106400042FD20008C
:102CF000820540000005EB008501780001003700E7
:102D00009FA997003301780093AF9F000A00450008
:102D10004425210060037A008FAA9700B50478004B
:102D200085AF9F00471D210060847B000692B9009B
:102D300008C8B9000002520045A2DE000890B900A0
:102D400009B3B900060140004591DE00FFA19700DC
:102D5000B3007800F3A79F00EFA29700849A500079
:102D6000E5A79F003E007800821E5000011E420031
:102D7000801D4100BFAB9700070545005FAC970081
:102D80008A0F5400DEFF3C00070678000100370080
:102D90003FAE97008FA497008904E80089A79F00A1
:102DA000890F56004E0032000FA19700B3FF370085
:102DB0000000EB00F09F9F00000178000100370049
:102DC00009017800CFA997000390B90000014000E5
:102DD0005FAA97000400E0003B00340000004200BE
:102DE00000004000450D210085024000D5A79F004E
:102DF00047FD200007004000C0A79F00480D2100AC
:102E000008044100B8A79F00028041000000400074
:102E100049ED200089014000070741004CDD2000FA
:102E20008C064000020041000906400041DD200000
:102E3000810540000005EB00050278000100370025
:102E40005FA2970034017800D4A79F000A004500D4
:102E50004525210060837A00CFA39700B70478004E
:102E6000C7A79F00411D2100608478000692B90029
:102E700008C8B9000002520045A2DE000890B9005F
:102E800009B3B900060140004591DE00BFA29700DA
:102E9000B5007800B5A79F00849950003E007800E7
:102EA000821E5000011E4200801D4100BFAB9700F2
:102EB000070545005FAC97008A0F5400E0FF3C0017
:102EC00007067800010037003FAE9700FF9C97008F
:102ED0008904E800F99F9F00890F5600B8FF3A0067
:102EE0000C0178004FA8970000004000C0AF9F0081
:102EF0000281D100B2AF9F00AFA997008301E80023
:102F0000A3AF9F006FAA9700848F510054FF3A002F
:102F1000FFAA970001003700830278000508A3008C
:102F20001B003A00020037008C00780001003700D7
:102F3000A1768000DFAB97000780430049ED2000B9
:102F400060837C0048DD200060027C0001004300BB
:102F5000A0868800A26E800002004200A07E880049
:102F60004FAE97000C004600450D210086805000B2
:102F700001B07A0046FD20000401510002307B00C0
:102F80008C03E900E10F56000E00340013003700F7
:102F90003FB097000000E000A3003C00E4FF3700D2
:102FA000BFA897000100E00081FF3C00030037004C
:102FB0003FA997000200E0002DFF3C003FA99700C9
:102FC000C8FF37004F0778004F06BE004F05BE0010
:102FD0004F04BE006F03B10000000600DFA9970098
:102FE0000300E800000040008900400008014000A4
:102FF0004FAA9700070042000000400085014000F2
:10300000060240000780430085024000060340009E
:103010004FAC9700E1036400B1047800A9B79F00AA
:10302000BC9280009CB79F0032007800BE8E80006A
:103030000CCEB9000E85B9008A045600C5CCDE005E
:10304000A9A79F002FB497000EC6B9009FB49700A0
:1030500000CDB9008A044600C5CDDE00BA768000F6
:103060002FA697008A114600B96E8000099245008C
:103070008C1255000B9354002000200090A79F0055
:103080004FAC970029002000890F5400CDFF32007B
:103090000700E0001E00320031067800ACB79F0048
:1030A000C0928000B2037800CE8E800000E6B900A6
:1030B0000EBDB9008A045600C5CCDE00A9A79F004A
:1030C0002FB497000EC6B9000785B9008A044600E0
:1030D000C5CDDE00CA768000AFA497008A91440077
:1030E000C96E8000099245002FA697008C125500EA
:1030F0000B9354003000200090A79F004000200058
:10310000CFAB970038002000888F5300ADFF32000E
:10311000B1047800A9B79F006C25210060067E00ED
:103120009CB79F00B2037800681D210060077C00F7
:103130000CCEB9000EBDB9008A045600C5CCDE0025
:10314000A9A79F00AFB497000ECEB9001FB4970097
:1031500007C5B9008A044600C5CDDE0068ED200031
:1031600060057C00AFA497008A91440067DD2000D1
:10317000E0847B00099245002FA697008C12550031
:103180000B9354000080E80083BF9F00B1017800DA
:10319000A3B79F0069252100E0847C0099B79F00B8
:1031A000320678008CB79F00631D2100608779008C
:1031B000AFB19700099EB9008FB497000ECDB9004A
:1031C0008A045600C5CCDE00A9A79F000E9EB90058
:1031D0009FB197008FB49700099DB9008A044600FB
:1031E000C5CDDE0060057C000FBE9700AFA1970043
:1031F0000A964100E0847B00099245008312550045
:103200000B9354009FA397008783E80097A79F0024
:103210000080E8008C0178004FAC9700870F5400C5
:1032200068FF3200BAFF37008004780046ED2000C6
:10323000430D210044DD200045FD20000000E90091
:1032400067006000AC868000AC768800A17E8000BC
:10325000A16E88001200200021002000828F5400FF
:1032600031FF32000000E0002D003200820F5000DC
:1032700024003200810F50001E003200E30F500086
:1032800018003200E40F500012003200E50F500029
:103290000C003200E60F500006003200B2868000BB
:1032A000B2768800B77E8000B76E88000101780092
:1032B0004100200063B3780065B278000201E800A5
:1032C0008180E80063B3780065B278000201E8000D
:1032D0008180E80063B3780065B278000201E800FD
:1032E0008180E80063B3780065B278000201E800ED
:1032F0008180E80063B3780065B278000201E800DD
:103300008180E80063B3780065B278000201E800CC
:103310008180E8003FB69700820F560004FF32001C
:1033200063B3780065B278000180E8006333780009
:10333000653278008080E80063B3780065B2780079
:10334000E400400063B3780065B27800E600400016
:1033500063B3780065B27800E800400063B378009A
:1033600065B27800EA00400063B3780065B2780087
:10337000EC00400063B3780065B27800680141005A
:10338000EE0040003FB69700820F5600E8FE320084
:10339000E3FF37000101780081804000400D2100EB
:1033A0008086400040FD2000808040004EDD2000EF
:1033B0000200E90061006000BD047800310578007A
:1033C000A7868000A87E800007824400A47688003B
:1033D00008024500A46E88002500200009825300E1
:1033E000B47688000A025400B46E88001C002000E5
:1033F000620D210063FD20005FAA97008C0F520030
:1034000006FE32000000E00012003200BD04780029
:103410003105780092037800130478000782440095
:10342000C476880008024500C46E880009825300F3
:10343000D47688000A025400D46E8800050678000D
:10344000820D210083FD2000DFAA97008C8F52009F
:10345000F0FD3200BD04780031057800B203780039
:10346000330478008C024600058342000782440042
:1034700040ED2000043378000802450004337F004B
:103480000502E80084024200098253008432780079
:103490000A02540084327F000C06E8000D00780018
:1034A00083057800B004780031057800B203780015
:1034B0003B0478008C0246000583420007824400EA
:1034C00043ED200004B379000802450004337F0077
:1034D0000502E800840242000982530084B27900A8
:1034E0000A02540084327F000C06E800800678004F
:1034F0008B0178005FAA97008C0F5200C7FD320045
:10350000D4FF3700CCE2A900CCC2A800CCA2A8000E
:10351000C482A800CC82A800C462A800CEE2A900A0
:10352000C8E2A900CEC2A900C8C2A900CEA2A900C3
:10353000C8A2A900C082A900C882A900C062A900CF
:10354000CCA2A90006F80700CCA2A8000000060043
:1035500000017800C462A9000100E000020032000E
:10356000C482A80001003700C482A9000000000046
:10357000C710DE00E1C06000C608DD00CCC2BF009D
:10358000F3CBB3000340600001407000CCE2B70011
:1035900000000000CC82A900CC82A800000000003E
:1035A0000201410000000000C710DE00E1C0600021
:1035B000C608DD00CCC2BF000340600001407000BF
:1035C000CCE2B70000000000CC82A900CC82A800A9
:1035D000000000000201410000000000C710DE00F2
:1035E000E1C06000C608DD00CCC2BF00034060003F
:1035F00001407000CCE2B70000000000CC82A900BE
:10360000CC82A80000000000020141000000000080
:10361000C710DE00E1C06000C608DD00CCC2BF00FC
:103620000340600001407000CCE2B70000000000E1
:10363000CC82A900CC82A800000000000201410059
:1036400000000000C710DE00E1C06000C608DD0019
:10365000CCC2BF000340600001407000CCE2B70064
:1036600000000000CC82A900CC82A800000000006D
:103670000201410000000000C710DE00E1C0600050
:10368000C608DD00CCC2BF000340600001407000EE
:10369000CCE2B70000000000CC82A900CC82A800D8
:1036A000000000000201410000000000C710DE0021
:1036B000E1C06000C608DD00CCC2BF00034060006E
:1036C00001407000CCE2B70000000000CC82A900ED
:1036D000CC82A800000000000000000002014100B0
:1036E0004711DE00614161004611DD00CCC2BF0020
:1036F0000340600002407000CCE2B7000000000010
:10370000CC82A900CC82A80000000000C462A800FE
:10371000000006008000EB00E00A20008CFF07009C
:103720008000EB00000A200089FF07008000EB000A
:10373000800C200086FF07008000EB00300A20008C
:1037400083FF07008000EB00C002200080FF07001D
:1037500083F707008000EB00E00220007CFF0700F9
:103760007FF707008000EB00F002200078FF0700E1
:103770008000EB003002200075FF07008000EB00A6
:103780001008200072FF07008000EB00C00120003D
:103790006FFF07008000EB00400A20006CFF07006D
:1037A0008000EB000004200069FF07008000EB00B0
:1037B000600A200066FF07008000EB00F00A20008E
:1037C00063FF070066F73700881F78000044780021
:1037D0008180FB0001007800000BB3008000EB004B
:1037E0005BFF07000884FB004440DE000040A000AF
:1037F0008000EB0056FF07006F0064008000EB00C4
:1038000053FF07004F04780000000600889FBE00A9
:103810008A1F780080417800A2C0B30000C2B300C4
:1038200080CF51000200320000CDB30000C1410042
:103830000104E000240032000204FB006544B900EA
:103840006A90280068407D000080FB000080EA004C
:10385000110020003EFF07000800E80060407D00E6
:103860000080FB000080EA001100200038FF070004
:103870000880E80060407D000080FB000080EA00D6
:103880001100200032FF07006300440060407D000B
:103890000080FB000080EA00110020002CFF0700E0
:1038A000640444006A407C000080FB000080EA0061
:1038B0001100200026FF070011002000F00F20005B
:1038C00023FF07001E0037000204FB006544B90017
:1038D0006A90280068407D000080FB0011002000F5
:1038E0001BFF07000800E80060407D000080FB002F
:1038F0001100200016FF07000880E80060407D00EE
:103900000080FB001100200011FF0700630044004D
:1039100060407D000080FB00110020000CFF0700CC
:10392000640444006A407C000080FB001100200019
:1039300007FF0700110020000000EB0004FF070054
:103940004F0578004F04BE0000000600889FBE00AF
:103950000004780081447800104078000004E00002
:103960000500320089407800A8FF07005840780021
:103970000004E000FBFF3A004F04BE000000060018
:10398000889FBE0000047800814478004C00DE006F
:10399000E94F500012003400130037006F406400FC
:1039A000E94F500002003C000043B0000100370026
:1039B0007043B0000904E0002B0034008040EB00AD
:1039C00092FF0700280037008040EB008FFF0700C0
:1039D00007003700E3CF540005003400FAFF37003A
:1039E0000043B000FBFF37007043B000F9FF370021
:1039F0004840DE006F406000E94F5000070034008F
:103A0000080037008040EB0080FF07000700370008
:103A1000E2CF540005003400FAFF37000043B00045
:103A2000FBFF37007043B000F9FF37004440DE0071
:103A30006F406000E94F5000070034000800370075
:103A40008040EB0071FF0700D4FF3700E1CF540046
:103A5000D2FF3400FAFF37000043B000FBFF37000D
:103A60007043B000F9FF37004F04BE0000000600AD
:103A7000889FBE008A9FBE0080457800014578007F
:103A80000084FB00A2002000110009000284D8007D
:103A90000004780001C3B300014044008A4078006C
:103AA0005AFF07000804FB006A44B90008C055002B
:103AB0000043B0008A40780054FF07004F05BE0065
:103AC0004F04BE0000000600889FBE008A9FBE0013
:103AD00080047800024478008105FB004206200043
:103AE000110009000280D80000017800024578002A
:103AF0000B00EA000B007000CF00DE0010C0B30026
:103B000081405000E24F540026003A003500370053
:103B10000204E00003003A0000C2B3003BFF0700CC
:103B20005F00370003C3B3000340410037FF0700C5
:103B30005B0037000A00FB00420620000280B9004B
:103B400080845400A2002000110009008284D80063
:103B500000017800024578008040EB00E18F5500BD
:103B600001003A008B407800E24F540039003A00DF
:103B70004800370000C2B30024FF070018C0B3009C
:103B8000ECFF370002C3B300024045001FFF0700EF
:103B90000044EB00E7FF37000A04E000F9FF3A00B9
:103BA000F4FF3700E14F54000A003A00FAFF3700F3
:103BB00000C2B30015FF070028C0B300DDFF3700C7
:103BC00003C3B3000340450010FF07000044EB00AF
:103BD000D8FF370002C3B300024045000BFF0700C7
:103BE000D4FF37000204E000F5FF3A00F0FF370091
:103BF0000A00FB006A00B90000C154008B00780085
:103C00000110A2000100EA0001007000CF00DE00F8
:103C100010C0B30081405000E24F5400C1FF3A0091
:103C2000BBFF370000C2B300F8FE070018C0B300A6
:103C3000EFFF370003C3B30003404500F3FE070066
:103C40000044EB00EAFF37000A04E000F9FF3A0005
:103C5000F4FF3700E14F54000A003A00FAFF370042
:103C600000C2B300E9FE070028C0B300E0FF370040
:103C700002C3B30002404500E4FE07000044EB002D
:103C8000DBFF370003C3B30003404500DFFE07003E
:103C9000D7FF37000A04E000F5FF3A00F0FF3700D5
:103CA0004F05BE004F04BE0000000600889FBE0006
:103CB0008A9FBE008C1F7800800478000105780080
:103CC0000000EB00800878008205FB0002712200F2
:103CD000801F7800110009008284D800000178005C
:103CE0004F00780002447800804078000B00E0002C
:103CF00001003A0011C0B3000804E00015003A00CA
:103D0000100037000800FB00027122000280B90099
:103D100080845400823E2000110009008284D80073
:103D200000017800024478008040EB00E18F5500EC
:103D300001003A008B4078000C00E00027003A00B8
:103D40002900370000C2B300B0FE07001C002000AD
:103D5000ECFF370002C3B30002404400ABFE070093
:103D60001A0DE8000006EB00E6FF37000800FB0034
:103D7000823E20000280B9000084540042062000E8
:103D8000110009000284D800000178008244780004
:103D90008B0078000110A2000100EA000100700011
:103DA000CF00DE0010C0B300814050000C00E000E6
:103DB0002D003A002F00370000C2B30093FE070029
:103DC000EAFF370002C3B300024044008FFE070041
:103DD0001A0DE8000006EB00E4FF37000804E000DD
:103DE000F8FF3A00F4FF370002C3B300024044007A
:103DF00086FE07001A0DE800DCFF37000900FB0013
:103E0000420620000280B90000045400A2002000F5
:103E1000110009000284D800000178008244780073
:103E2000E3806D000100EA0001007000CF00DE00B9
:103E300010C0B300814050000C00E00026003A00A2
:103E40002700370000C2B30070FE0700EBFF370009
:103E500002C3B30002C044006CFE07001A0DE80064
:103E60000006EB00E5FF37000204E000F8FF3A002F
:103E7000F4FF370002C3B30002C0440063FE070032
:103E80001A0DE800DDFF37000B0078000020A200CB
:103E90008000EA0080807000CF08DE0010C0B30010
:103EA000814050000900FB006A01B9000200540083
:103EB0000043B00055FE07001A0DE8004F067800D9
:103EC0004F05BE004F04BE000000060000C2B30054
:103ED0004EFE0700ECFF37000204E000FBFF32005B
:103EE00002C3B30002C0440048FE07001A0DE800F8
:103EF000E5FF3700889FBE008A9FBE0098F5070047
:103F00000005EB000BC8B300060037000A05E80007
:103F1000E80F550003003A004F05BE004F04BE00F5
:103F2000000006008A4078000040EB0026FE0700F3
:103F300078C0B300110020000000EB0084FD0700F2
:103F40004006200043F5070019C0B3008BCF540092
:103F5000EEFF32000804E00038003200894F5400C0
:103F60002E003200E24F540026003200E34F54008E
:103F70001E003200E44F540016003200E54F54009A
:103F80000E003200E64F54000600320011002000FF
:103F90000000EB006EFD0700400620002DF5070035
:103FA00029C0B300110020000000EB0068FD0700ED
:103FB0004006200027F507008944E8001100200092
:103FC0000000EB0062FD07004006200021F507001D
:103FD0008944E800110020000000EB005CFD0700B0
:103FE000400620001BF507008944E800110020006E
:103FF0000000EB0056FD07004006200015F5070005
:104000008944E800110020000000EB0050FD07008B
:10401000400620000FF507008944E8001100200049
:104020000000EB004AFD07004006200009F50700EC
:104030008944E8008BCF5400B4FF32001100200007
:104040000000EB0042FD07004006200001F50700DC
:104050000944E800110020000000EB003CFD0700CF
:1040600040062000FBF40700110020000000EB00D8
:1040700037FD070040062000F6F40700110020007D
:104080000000EB0032FD070040062000F1F40700BD
:10409000110020000000EB002DFD0700400620006D
:1040A000ECF40700110020000000EB0028FD0700E1
:1040B00040062000E7F40700110020000000EB009C
:1040C00023FD070040062000E2F407001100200055
:1040D0000000EB001EFD070040062000DDF4070095
:1040E000E74444008BCF540088FF3200D3FF3700F1
:1040F0008001FA00889FBE008A9FBE008C1F780056
:10410000004278000145780061E72F008F80400071
:104110000041EB00EA8157000A0137008484FB006C
:104120000002EB0066EF2F000683470065F72F00C3
:104130008582470007CD200008FC2F0008004200C0
:1041400000017800F207B20082004100400D21001A
:10415000E10178000300E00001003D008301EA0076
:104160008200410040FD2000610078000000E00076
:1041700001003D000000EA00008041008980DE006F
:104180000A04E00007003200170078000000400039
:10419000800B7800E78F5000020034000000A00080
:1041A000800B7800E38F50006C00320006003C006A
:1041B000E18F50006400320066003C000100E00026
:1041C0005F00320074003700E58F50006900320054
:1041D00065003500E68F500069003200E78F50001F
:1041E0006D003A00690037008048EB001500370089
:1041F00000C8B30080487800120037008848780073
:104200001000370000CEB300804878000D00370062
:1042100000CFB300804878000A00370080CFB30099
:104220008048780007003700C0CFB300804878008E
:1042300004003700E0CFB300804878000100370069
:1042400080C8EB000402E8000603E8008502E800ED
:104250008783E80000082000800F5200B7FF3A0073
:104260000006EB008C4078000040EB0056FD070094
:104270004760DD000C00E00028003A0061E72F00F5
:104280008F804000808440000C0478003A042000B5
:104290001981FB008A0F54000F00320007003C0018
:1042A00010042000800F54000F0032000000E800CE
:1042B000800F54000D003A00090037004004200030
:1042C000800F5400060032000000E800800F540008
:1042D00006003A00040037007200B3000300370004
:1042E0003200B300010037000200A00011002000DE
:1042F0000200780096FC07000804E8008904E80042
:1043000000082000800F5400E1FF3A000C06E8008E
:10431000E30F560062003200D2FF370062E72F0041
:104320000F014100000541008004EB000B08200054
:10433000600037006880500019003B00C1FF370063
:10434000804AEB00FBFF370000C8B300804A7800CA
:10435000F8FF3700884A7800F6FF370000CEB30038
:10436000804A7800F3FF370000CFB300804A78001E
:10437000F0FF370080CFB300804A7800EDFF3700B0
:10438000C0CFB300804A7800EAFF3700E0CFB30027
:10439000804A7800E7FF370080CAEB00E5FF37006E
:1043A000E30F50002D00320006003C00E10F5000EA
:1043B0002500320027003C000000E0002000320011
:1043C00035003700E50F50002A0032002600350086
:1043D000E60F50002A003200E70F50002E003A008E
:1043E0002A00370062E72F000F01410084004100DE
:1043F000E30F500083FF320006003C00E10F500045
:104400007BFF32007DFF3C000000E00076FF3200C1
:104410008BFF3700E50F500080FF32007CFF350036
:10442000E60F500080FF3200E70F500084FF3A0093
:1044300080FF370070805000EAFF3B0081FF3700AB
:10444000004BEB00FBFF370000C8B300004B7800C7
:10445000F8FF3700084B7800F6FF370000CEB300B6
:10446000004B7800F3FF370000CFB300004B78001B
:10447000F0FF370080CFB300004B7800EDFF37002E
:10448000C0CFB300004B7800EAFF3700E0CFB300A5
:10449000004B7800E7FF370000CBEB00E5FF37006B
:1044A0004F0678004F05BE004F04BE000080FA00A2
:1044B000000006003A80FB001100200024FC0700E9
:1044C0008904E8000A0478003A80FB00110020000B
:1044D0001FFC07001A80FB00110020001CFC0700D5
:1044E0000885E8001A80FB001100200018FC070076
:1044F000630544001A80FB001100200014FC070033
:10450000640544001A80FB001100200010FC070025
:10451000650544001A80FB00110020000CFC070018
:10452000660544001A80FB001100200008FC07000B
:10453000E7844400670544008B8F540073FF32000A
:10454000DCFF37008258780001007800825878003C
:10455000824878008080E80082487800E3004000CC
:1045600082487800E400400082487800E50040007E
:1045700082487800E600400082487800E70040006A
:10458000838F5000E5FE3200EEFF3700889FBE00AB
:104590008A9FBE0031C0B3000040EB008AFC0700D8
:1045A00009CD2000FA0320000BDD20007300370046
:1045B0004F05BE004F04BE000000060041C0B3001E
:1045C0000040EB0080FC070020CD2000008054005C
:1045D0000000D10067046000806680004600DE00B5
:1045E0000080FB0011002000D9FB07002ACD20002D
:1045F000890F5500EEFF32000800E0003200320063
:10460000E10F540029003200E20F54002200320072
:10461000E30F54001B003200E40F5400140032007A
:10462000E50F54000D003200E60F54000600320082
:104630001A0078004600DE000080FB001100200018
:10464000C3FB07004ACD20003A0078004600DE0098
:104650000080FB0011002000BDFB07003A0078003D
:104660004600DE000080FB0011002000B8FB0700C0
:104670003A0078004600DE000080FB0011002000B8
:10468000B3FB07003A0078004600DE000080FB0024
:1046900011002000AEFB07003A0078004600DE0063
:1046A0000080FB0011002000A9FB07003A00780001
:1046B0004600DE000080FB0011002000A4FB070084
:1046C000890F5500BAFF32003A0078004600DE003C
:1046D0000080FB00110020009DFB07000A04780009
:1046E0003A0078004600DE000080FB001100200048
:1046F00097FB07001A0078004600DE000080FB00F0
:104700001100200092FB0700280090004600DE0008
:104710000080FB00110020008DFB07003800900096
:104720004600DE000080FB001100200088FB07002F
:10473000480090004600DE000080FB0011002000D1
:1047400083FB0700580090004600DE000080FB005D
:10475000110020007EFB0700680090004600DE008C
:104760000080FB001100200079FB07006E0544006B
:10477000890F55008EFF3200D3FF370039006500E6
:104780004200DD000000A0001100200070FB0700C7
:1047900009047800390065004200DD000004A00033
:1047A0000080FB001100200069FB07001900650074
:1047B0004200DD000004A0000080FB00110020008A
:1047C00063FB0700E4044400190065004200DD00BB
:1047D0000004A0000080FB00110020005CFB07002B
:1047E000E6044400190065004200DD000004A0005A
:1047F0000080FB001100200055FB0700E804440086
:10480000190065004200DD000004A0000080FB00EC
:10481000110020004EFB0700EA0444001900650067
:104820004200DD000004A0000080FB001100200019
:1048300047FB0700EC044400190065004200DD005E
:104840000004A0000080FB001100200040FB0700D6
:10485000EE0444008B8F540058FF3200C7FF37002E
:10486000889FBE008A1F78008004780001047800C9
:104870000245780051C0B3000040EB00D2FB0700B6
:104880008040EB00D09D280030FC07008900EA0042
:1048900089807000CF08DE0010C0B3008140500056
:1048A00010C1B3000840500071FC070051C0B300B4
:1048B00000C2B300C4FB07008040EB00E18F54004E
:1048C00001003A00894078000A04E0000300320049
:1048D000E14F550006003A0003003700109E280003
:1048E0001AFC070002003700409E280017FC070052
:1048F0004F0578004F04BE00000006000400FA00D7
:10490000889FBE008A9FBE008C9FBE000246780032
:10491000628F2200831424002FEF070080BF9F00C6
:1049200091BF9F00BDEF07000005BE00823E200042
:1049300003002000DEEF07000004BE00803E2000E0
:1049400000C0B9008006550051C0B300E0C2B300FA
:104950009DFB070022C0B3008C407800080078005F
:1049600059FC07000800E000080032008040EB001E
:10497000B0C3B300A5FB07000041EB008C407800FA
:104980000D00780050FC0700070037008040EB0066
:1049900000C2B3009DFB070012C0B3008C4078003A
:1049A0000D00780048FC07008040EB0000C4B30015
:1049B00096FB07000C44780058C0B2000884FB0046
:1049C0000804E9004F44DE000A00BE00D6EE0700EE
:1049D0000001BE000FB897009FB89700FDEE0700DA
:1049E000020020000312240058EF07008BEF07009D
:1049F0000043B0008840780084FB070011002000CD
:104A0000E00F2000D2FA0700110020000002200071
:104A1000CFFA070011002000000D2000CCFA07009B
:104A2000110020000000EB00C9FA0700110020006F
:104A3000E00F2000C6FA070011002000000120004E
:104A4000C3FA070011002000E00F2000C0FA0700A1
:104A5000110020000000EB00BDFA0700110020004B
:104A600000092000BAFA070011002000000D200004
:104A7000B7FA070011002000000B2000B4FA07006D
:104A8000708E28001080FB0011002000B0FA070093
:104A90004F06BE004F05BE004F04BE000080FA0066
:104AA00000000600CCE2A900CCC2A800CCA2A8005D
:104AB000C482A800CC82A800C462A900CD42A8008C
:104AC000CEE2A900C8E2A900CEC2A900C8C2A900CE
:104AD000CEA2A900C8A2A900C082A900C882A900CC
:104AE000C062A800CF42A900C942A9000000060088
:104AF00000427800CCA2A9000104E00002003200CC
:104B0000CC82A80001003700CC82A9008480FB0081
:104B1000C708DE00C608DD00CCC2BF00F3CBB3007F
:104B20000340600001407000CCE2B700CCE2A90075
:104B300000000000CCE2A8000401FB00C610DE006B
:104B4000E1C06000C608DD00CCC2BF0003406000C9
:104B500001407000CCE2B700CCE2A90000000000E8
:104B6000CCE2A800C510DE00E1C06000C608DD0090
:104B7000CCC2BF000340600001407000CCE2B7002F
:104B8000CCE2A90000000000CCE2A800C410DE00C6
:104B9000E1C06000C608DD00CCC2BF000340600079
:104BA00001407000CCE2B700CCE2A9000000000098
:104BB000CCE2A800C310DE00E1C06000C608DD0042
:104BC000CCC2BF000340600001407000CCE2B700DF
:104BD000CCE2A90000000000CCE2A800C210DE0078
:104BE000E1C06000C608DD00CCC2BF000340600029
:104BF00001407000CCE2B700CCE2A9000000000048
:104C0000CCE2A8000201D100614161004611DD0043
:104C1000CCC2BF000340600002407000CCE2B7008D
:104C2000CCE2A90000000000CCE2A800E140620054
:104C3000C608DD00CCC2BF00034060000140700028
:104C4000CCE2B700CCE2A90000000000CCE2A80052
:104C5000CCA2A80000000600889FBE00CCA2A9003C
:104C6000C482A80040012000FAF10700C482A90014
:104C700040012000F7F10700C482A8000004EB0007
:104C8000C9032000F10037008040EB0010C1B300E1
:104C900097FF0700DF00370088407800A0C3B3000B
:104CA00093FF070011C0B30050C0B30090FF07008E
:104CB0008840780010CBB3008DFF070011C0B3000F
:104CC000084078008AFF070011C0B30060C0B3003D
:104CD00087FF070011C0B30030C0B30084FF070096
:104CE0008840780060C3B30081FF070011C0B300A3
:104CF00000C6B3007EFF07008840780060CBB30099
:104D00007BFF070011C0B30050C1B30078FF07005C
:104D100011C0B30020C0B30075FF070088407800C1
:104D200040CBB30072FF070011C0B3000840780009
:104D30006FFF07008840780000CCB3006CFF0700CD
:104D400011C0B30020C0B30069FF070011C0B30059
:104D500000C7B30066FF070001F207008840780033
:104D600010CCB30062FF070011C0B30050C0B30005
:104D70005FFF07008840780020CCB3005CFF07008D
:104D800011C0B3000140780059FF070011C0B30003
:104D900020C0B30056FF07008840780050CCB30015
:104DA00053FF070011C0B300C0C3B30050FF07009A
:104DB00011C0B30080C3B3004DFF0700E8F1070046
:104DC00088407800C0CFB30049FF070011C0B3008E
:104DD00010C1B30046FF070011C0B30050C1B300BB
:104DE00043FF07008840780000CEB30040FF070073
:104DF00011C0B30090C0B3003DFF070011C0B30065
:104E000060C1B3003AFF070011C0B30090C0B30007
:104E100037FF070011C0B30000C2B30034FF070022
:104E200011C0B30010C2B30031FF070011C0B300BE
:104E3000B0C1B3002EFF070011C0B30030C1B300F2
:104E40002BFF070011C0B30090C1B30028FF07007B
:104E500011C0B30070C1B30025FF070011C0B3003B
:104E600050C1B30022FF070011C0B300E0C1B3007E
:104E70001FFF070011C0B300B0C2B3001CFF070042
:104E800011C0B30040C0B30019FF070011C0B30048
:104E900050C0B30016FF070011C0B30020C0B3001C
:104EA00013FF070011C0B300E0C0B30010FF0700FC
:104EB0008840780010CEB3000DFF070011C0B3008A
:104EC000B0C0B3000AFF070011C0B30040C1B30077
:104ED00007FF070011C0B30080C0B30004FF070044
:104EE00011C0B300E0C1B30001FF070011C0B3005F
:104EF00020C2B300FEFE070011C0B300D0C1B30052
:104F0000FBFE070011C0B30080C1B300F8FE07002C
:104F100011C0B300E0C1B300F5FE070011C0B3003B
:104F2000B0C1B300F2FE070011C0B300A0C1B300CE
:104F3000EFFE070011C0B30040C2B300ECFE070053
:104F400011C0B300B0C2B300E9FE070011C0B30046
:104F500060C0B300E6FE070011C0B30060C0B3003C
:104F6000E3FE070011C0B30020C0B300E0FE07005D
:104F700011C0B300F0C0B300DDFE07008840780028
:104F8000A0C2B300DAFE070011C0B30008407800E9
:104F9000D7FE070011C0B30008407800D4FE070018
:104FA00011C0B30008407800D1FE070011C0B30063
:104FB000F0C7B300CEFE070088407800B0C2B3004F
:104FC000CBFE070011C0B30008407800C8FE070000
:104FD00011C0B30008407800C5FE070011C0B3003F
:104FE00008407800C2FE070011C0B300F0C7B3004C
:104FF000BFFE07008840780030C1B300BCFE070048
:105000008840780090C2B300B9FE07004F04BE008C
:105010000000060052F107000804E90050F1070003
:105020004FF107004EF107004DF107004CF107006A
:105030004BF107004AF1070049F1070048F107006A
:105040006904540014FF3200F2FF370044F10700F6
:105050000804E80042F1070041F1070040F10700B1
:105060003FF107003EF107003DF107003CF107006A
:105070003BF107003AF1070069044400890F54002E
:1050800001FF3200F1FF3700889FBE008A9FBE00FB
:105090008C9FBE0000457800C804DE008040EB0015
:1050A000A0C2B30092FE070011C0B3000040EB00A5
:1050B0008FFE070011C0B3000040EB008CFE07001C
:1050C00011C0B3000040EB0089FE070011C0B3001F
:1050D000F0C7B30086FE07008040EB00B0C2B3000B
:1050E00083FE070011C0B3000040EB0080FE070004
:1050F00011C0B3000040EB007DFE070011C0B300FB
:105100000040EB007AFE070011C0B300F0C7B30007
:1051100077FE07008040EB00C0C2B30074FE0700BA
:105120000D0820000D067800060037008D06E90006
:1051300004003A004F06BE004F05BE004F04BE00FB
:10514000000006007B00200011C0B3000A40780078
:1051500067FE070011C0B3000940780064FE070035
:10516000180020008C0F5400F0FF32000B00E0000C
:105170003F003200888F550034003200E28F550026
:105180002B003200E38F550022003200E48F5500DF
:1051900019003200E58F550010003200E68F5500EF
:1051A00007003200884078000A40780050FE07006F
:1051B00088407800094078004DFE07002800200054
:1051C00011C0B3000A40780049FE070011C0B300C7
:1051D0000940780046FE07000804E80011C0B3004B
:1051E0000A40780042FE070011C0B3000940780071
:1051F0003FFE07000804E80011C0B3000A40780031
:105200003BFE070011C0B3000940780038FE0700DC
:105210000804E80011C0B3000A40780034FE07001B
:1052200011C0B3000940780031FE07000804E8000F
:1052300011C0B3000A4078002DFE070011C0B30072
:10524000094078002AFE07000804E80011C0B300F6
:105250000A40780026FE070011C0B300094078001C
:1052600023FE07000804E8008C0F5400AFFF320053
:1052700011C0B3000A4078001DFE070011C0B30042
:10528000094078001AFE07000804E80011C0B300C6
:105290000A40780016FE070011C0B30009407800EC
:1052A00013FE070011C0B3000A40780010FE07008B
:1052B00011C0B300094078000DFE070011C0B30013
:1052C0000A4078000AFE070011C0B30009407800C8
:1052D00007FE070011C0B3000A40780004FE070073
:1052E00011C0B3000940780001FE070011C0B300EF
:1052F0000A407800FEFD070011C0B30009407800A5
:10530000FBFD070011C0B3000A407800F8FD07005C
:1053100011C0B30009407800F5FD070011C0B300CB
:105320000A407800F2FD070011C0B3000940780080
:10533000EFFD0700670444008C0F54007BFF320030
:10534000CBFF3700C942A80000000600CD42A900EB
:10535000C942A90000000600CD42A800C942A90028
:1053600000000600E4874700889FBE008A9FBE00B9
:105370008C9FBE008E1F7800004178000104E00081
:1053800003003A0001467800014778000600370024
:10539000FCC1B3000047EB00D954E20002003A0020
:1053A0000046EB006EC6B300A8C0B30000C2B30055
:1053B000804F51000200320000CDB3000044410094
:1053C00011E1A9008040EB00A0C2B300C8FD0700B6
:1053D00011C0B3000040EB00C5FD0700DBD4BF00E7
:1053E00011C0B300C2FD070011C0B3000040EB00C4
:1053F000BFFD0700DBD4BF006540400011C0B30013
:10540000BBFD07008040EB00B0C2B300B8FD070051
:1054100011C0B3000040EB00B5FD0700DAD4BF00B7
:1054200011C0B300B2FD070011C0B3000040EB0093
:10543000AFFD0700DAD4BF006740400011C0B300E1
:10544000ABFD070060C0B300DB74B4008040EB002C
:10545000C0C2B300A6FD07000800FB0011C0B300E6
:105460008D0020006505B900699028006AC07C00A5
:105470000080FB0080BF9F000104FB008FB89700F5
:105480000100640024003A002A00370011C0B30074
:1054900000C0EB0096FD070011C0B30000C0EB0098
:1054A00093FD07000600370011C0B3000E407800DE
:1054B0008FFD070011C0B3000C4078008CFD070081
:1054C00011C0B3000E40780089FD070011C0B30081
:1054D0000C40780086FD0700884044008D06E900F6
:1054E000E5FF3A0011E1A8004F0778004F06BE0023
:1054F0004F05BE004F04BE004F00B1000000060083
:105500000A00E80060C07C000080FB00000064002E
:1055100015003A001B00370011C0B30000C0EB00BB
:1055200073FD070011C0B30000C0EB0070FD070061
:10553000F3FF370011C0B3000E4078006CFD070088
:1055400011C0B3000C40780069FD0700ECFF370084
:105550000A80E80060C07C000080FB00000064005E
:1055600015003A001B00370011C0B30000C0EB006B
:105570005FFD070011C0B30000C0EB005CFD070039
:10558000F3FF370011C0B3000E40780058FD07004C
:1055900011C0B3000C40780055FD0700ECFF370048
:1055A0006300450060C07C000080FB0000006400D8
:1055B00015003A001B00370011C0B30000C0EB001B
:1055C0004BFD070011C0B30000C0EB0048FD070011
:1055D000F3FF370011C0B3000E40780044FD070010
:1055E00011C0B3000C40780041FD0700ECFF37000C
:1055F00064004500694078000080FB0008006000FE
:10560000A2FF3A00A8FF370011C0B30000C0EB00B2
:1056100037FD070011C0B30000C0EB0034FD0700E8
:10562000F3FF370011C0B3000E40780030FD0700D3
:1056300011C0B3000C4078002DFD0700ECFF3700CF
:10564000889FBE008A9FBE008C9FBE008E1F780080
:1056500000447800010678008040EB00A0C2B3004F
:1056600023FD070011C0B3000040EB0020FD070040
:10567000DBD4BF0011C0B3001DFD070011C0B30093
:105680000040EB001AFD0700DBD4BF006340400080
:1056900011C0B30016FD07008040EB00B0C2B3009C
:1056A00013FD070011C0B3000040EB0010FD070020
:1056B000DAD4BF0011C0B3000DFD070011C0B30064
:1056C0000040EB000AFD0700DAD4BF006440400050
:1056D00011C0B30006FD070040C0B300DB74B40086
:1056E0008040EB00C0C2B30001FD070000CDB30055
:1056F000004044000000FB0011C0B3006305B90086
:105700008D8E28006AC07E000087FB00C8E4DE00A2
:105710004C00370011C0B3000040EB00F4FC070060
:1057200011C0B3000040EB00F1FC070088404400CA
:105730000104FB000800670015003A001B00370059
:1057400011C0B30009407800E9FC070011C0B300A4
:105750000C407800E6FC07002F00370011C0B300B2
:105760000040EB00E2FC070011C0B3000040EB007A
:10577000DFFC0700280037000A00E80060C07E0058
:105780000080FB000000640015003A001B00370099
:1057900011C0B30009407800D5FC070011C0B30068
:1057A0000C407800D2FC0700F3FF370011C0B300B3
:1057B0000040EB00CEFC070011C0B3000040EB003E
:1057C000CBFC0700ECFF37000A80E8006D40780052
:1057D0000080FB0008006000D9FF3A00DFFF3700BF
:1057E00011C0B30009407800C1FC070011C0B3002C
:1057F0000C407800BEFC0700F3FF370011C0B30077
:105800000040EB00BAFC070011C0B3000040EB0001
:10581000B7FC0700ECFF370011C0B3000040EB00FD
:10582000B3FC070011C0B3000040EB00B0FC070060
:105830004F0778004F06BE004F05BE004F04BE0064
:10584000000006000104FB000800670029003A0080
:105850002F00370011C0B30009407800A4FC0700F6
:1058600011C0B3000C407800A1FC07002F003700E6
:1058700011C0B3000040EB009DFC070011C0B30055
:105880000040EB009AFC0700280037000A80E8007F
:105890006D4078000080FB0008006000EDFF3A00DA
:1058A000F3FF370011C0B3000940780090FC0700F7
:1058B00011C0B3000C4078008DFC0700F3FF3700E7
:1058C00011C0B3000040EB0089FC070011C0B30019
:1058D0000040EB0086FC0700ECFF37000A00E80000
:1058E00060C07E000080FB0000006400EDFF3A0015
:1058F000F3FF370011C0B300094078007CFC0700BB
:1059000011C0B3000C40780079FC0700F3FF3700AA
:1059100011C0B3000040EB0075FC070011C0B300DC
:105920000040EB0072FC0700ECFF370011C0B30031
:105930000040EB006EFC070011C0B3000040EB001C
:105940006BFC0700884044000104FB00080067006E
:1059500029003A002F00370011C0B3000940780039
:1059600063FC070011C0B3000C40780060FC070026
:105970002F00370011C0B3000040EB005CFC0700B3
:1059800011C0B3000040EB0059FC070028003700AD
:105990000A80E8006D4078000080FB00080060008D
:1059A000EDFF3A00F3FF370011C0B3000940780063
:1059B0004FFC070011C0B3000C4078004CFC0700FE
:1059C000F3FF370011C0B3000040EB0048FC0700B4
:1059D00011C0B3000040EB0045FC0700ECFF3700AE
:1059E0000A00E80060C07E000080FB000000640048
:1059F000EDFF3A00F3FF370011C0B3000940780013
:105A00003BFC070011C0B3000C40780038FC0700D5
:105A1000F3FF370011C0B3000040EB0034FC070077
:105A200011C0B3000040EB0031FC0700ECFF370071
:105A300011C0B3000040EB002DFC070011C0B30003
:105A40000040EB002AFC0700884044000104FB00F2
:105A50000800670029003A002F00370011C0B3008A
:105A60000940780022FC070011C0B3000C40780008
:105A70001FFC07002F00370011C0B3000040EB00EF
:105A80001BFC070011C0B3000040EB0018FC07002E
:105A9000280037000A80E8006D4078000080FB0095
:105AA00008006000EDFF3A00F3FF370011C0B300BB
:105AB000094078000EFC070011C0B3000C407800CC
:105AC0000BFC0700F3FF370011C0B3000040EB00F0
:105AD00007FC070011C0B3000040EB0004FC070006
